{
  "contractName": "ChainList",
  "abi": [
    {
      "constant": false,
      "inputs": [
        {
          "name": "_id",
          "type": "uint256"
        }
      ],
      "name": "buyArticle",
      "outputs": [],
      "payable": true,
      "stateMutability": "payable",
      "type": "function"
    },
    {
      "constant": false,
      "inputs": [],
      "name": "kill",
      "outputs": [],
      "payable": false,
      "stateMutability": "nonpayable",
      "type": "function"
    },
    {
      "constant": true,
      "inputs": [],
      "name": "getArticlesForSale",
      "outputs": [
        {
          "name": "",
          "type": "uint256[]"
        }
      ],
      "payable": false,
      "stateMutability": "view",
      "type": "function"
    },
    {
      "constant": false,
      "inputs": [
        {
          "name": "_name",
          "type": "string"
        },
        {
          "name": "_description",
          "type": "string"
        },
        {
          "name": "_price",
          "type": "uint256"
        },
        {
          "name": "_category",
          "type": "string"
        },
        {
          "name": "_url",
          "type": "string"
        }
      ],
      "name": "sellArticle",
      "outputs": [],
      "payable": false,
      "stateMutability": "nonpayable",
      "type": "function"
    },
    {
      "constant": true,
      "inputs": [],
      "name": "getNumberOfArticles",
      "outputs": [
        {
          "name": "",
          "type": "uint256"
        }
      ],
      "payable": false,
      "stateMutability": "view",
      "type": "function"
    },
    {
      "constant": true,
      "inputs": [
        {
          "name": "",
          "type": "uint256"
        }
      ],
      "name": "articles",
      "outputs": [
        {
          "name": "id",
          "type": "uint256"
        },
        {
          "name": "seller",
          "type": "address"
        },
        {
          "name": "buyer",
          "type": "address"
        },
        {
          "name": "name",
          "type": "string"
        },
        {
          "name": "description",
          "type": "string"
        },
        {
          "name": "price",
          "type": "uint256"
        },
        {
          "name": "category",
          "type": "string"
        },
        {
          "name": "url",
          "type": "string"
        }
      ],
      "payable": false,
      "stateMutability": "view",
      "type": "function"
    },
    {
      "anonymous": false,
      "inputs": [
        {
          "indexed": true,
          "name": "_id",
          "type": "uint256"
        },
        {
          "indexed": true,
          "name": "_seller",
          "type": "address"
        },
        {
          "indexed": false,
          "name": "_name",
          "type": "string"
        },
        {
          "indexed": false,
          "name": "_price",
          "type": "uint256"
        },
        {
          "indexed": false,
          "name": "_category",
          "type": "string"
        },
        {
          "indexed": false,
          "name": "_url",
          "type": "string"
        }
      ],
      "name": "LogSellArticle",
      "type": "event"
    },
    {
      "anonymous": false,
      "inputs": [
        {
          "indexed": true,
          "name": "_id",
          "type": "uint256"
        },
        {
          "indexed": true,
          "name": "_seller",
          "type": "address"
        },
        {
          "indexed": true,
          "name": "_buyer",
          "type": "address"
        },
        {
          "indexed": false,
          "name": "_name",
          "type": "string"
        },
        {
          "indexed": false,
          "name": "_price",
          "type": "uint256"
        },
        {
          "indexed": false,
          "name": "_category",
          "type": "string"
        },
        {
          "indexed": false,
          "name": "_url",
          "type": "string"
        }
      ],
      "name": "LogBuyArticle",
      "type": "event"
    }
  ],
  "bytecode": "0x6060604052336000806101000a81548173ffffffffffffffffffffffffffffffffffffffff021916908373ffffffffffffffffffffffffffffffffffffffff160217905550610ff3806100536000396000f300606060405260043610610078576000357c0100000000000000000000000000000000000000000000000000000000900463ffffffff1680631cc4baa81461007d57806341c0e1b5146100955780637f6be3da146100aa57806380d8aedf1461011457806389da85d314610243578063edcfafe61461026c575b600080fd5b6100936004808035906020019091905050610534565b005b34156100a057600080fd5b6100a8610936565b005b34156100b557600080fd5b6100bd6109cb565b6040518080602001828103825283818151815260200191508051906020019060200280838360005b838110156101005780820151818401526020810190506100e5565b505050509050019250505060405180910390f35b341561011f57600080fd5b610241600480803590602001908201803590602001908080601f0160208091040260200160405190810160405280939291908181526020018383808284378201915050505050509190803590602001908201803590602001908080601f0160208091040260200160405190810160405280939291908181526020018383808284378201915050505050509190803590602001909190803590602001908201803590602001908080601f0160208091040260200160405190810160405280939291908181526020018383808284378201915050505050509190803590602001908201803590602001908080601f01602080910402602001604051908101604052809392919081815260200183838082843782019150505050505091905050610b37565b005b341561024e57600080fd5b610256610e80565b6040518082815260200191505060405180910390f35b341561027757600080fd5b61028d6004808035906020019091905050610e8a565b604051808981526020018873ffffffffffffffffffffffffffffffffffffffff1673ffffffffffffffffffffffffffffffffffffffff1681526020018773ffffffffffffffffffffffffffffffffffffffff1673ffffffffffffffffffffffffffffffffffffffff1681526020018060200180602001868152602001806020018060200185810385528a8181546001816001161561010002031660029004815260200191508054600181600116156101000203166002900480156103925780601f1061036757610100808354040283529160200191610392565b820191906000526020600020905b81548152906001019060200180831161037557829003601f168201915b50508581038452898181546001816001161561010002031660029004815260200191508054600181600116156101000203166002900480156104155780601f106103ea57610100808354040283529160200191610415565b820191906000526020600020905b8154815290600101906020018083116103f857829003601f168201915b50508581038352878181546001816001161561010002031660029004815260200191508054600181600116156101000203166002900480156104985780601f1061046d57610100808354040283529160200191610498565b820191906000526020600020905b81548152906001019060200180831161047b57829003601f168201915b505085810382528681815460018160011615610100020316600290048152602001915080546001816001161561010002031660029004801561051b5780601f106104f05761010080835404028352916020019161051b565b820191906000526020600020905b8154815290600101906020018083116104fe57829003601f168201915b50509c5050505050505050505050505060405180910390f35b60008060025411151561054657600080fd5b60008211801561055857506002548211155b151561056357600080fd5b60016000838152602001908152602001600020905060008160020160009054906101000a900473ffffffffffffffffffffffffffffffffffffffff1673ffffffffffffffffffffffffffffffffffffffff161415156105c157600080fd5b8060010160009054906101000a900473ffffffffffffffffffffffffffffffffffffffff1673ffffffffffffffffffffffffffffffffffffffff163373ffffffffffffffffffffffffffffffffffffffff161415151561062057600080fd5b80600501543414151561063257600080fd5b338160020160006101000a81548173ffffffffffffffffffffffffffffffffffffffff021916908373ffffffffffffffffffffffffffffffffffffffff1602179055508060010160009054906101000a900473ffffffffffffffffffffffffffffffffffffffff1673ffffffffffffffffffffffffffffffffffffffff166108fc349081150290604051600060405180830381858888f1935050505015156106d957600080fd5b8060020160009054906101000a900473ffffffffffffffffffffffffffffffffffffffff1673ffffffffffffffffffffffffffffffffffffffff168160010160009054906101000a900473ffffffffffffffffffffffffffffffffffffffff1673ffffffffffffffffffffffffffffffffffffffff16837fc7686d7755e8040f2c6b8c7cfec485400de4afa87456a48de5f0ffb4b2d391368460030185600501548660060187600701604051808060200185815260200180602001806020018481038452888181546001816001161561010002031660029004815260200191508054600181600116156101000203166002900480156108195780601f106107ee57610100808354040283529160200191610819565b820191906000526020600020905b8154815290600101906020018083116107fc57829003601f168201915b505084810383528681815460018160011615610100020316600290048152602001915080546001816001161561010002031660029004801561089c5780601f106108715761010080835404028352916020019161089c565b820191906000526020600020905b81548152906001019060200180831161087f57829003601f168201915b505084810382528581815460018160011615610100020316600290048152602001915080546001816001161561010002031660029004801561091f5780601f106108f45761010080835404028352916020019161091f565b820191906000526020600020905b81548152906001019060200180831161090257829003601f168201915b505097505050505050505060405180910390a45050565b6000809054906101000a900473ffffffffffffffffffffffffffffffffffffffff1673ffffffffffffffffffffffffffffffffffffffff163373ffffffffffffffffffffffffffffffffffffffff1614151561099157600080fd5b6000809054906101000a900473ffffffffffffffffffffffffffffffffffffffff1673ffffffffffffffffffffffffffffffffffffffff16ff5b6109d3610f0e565b6109db610f0e565b6000806109e6610f0e565b60006002546040518059106109f85750595b9080825280602002602001820160405250945060009350600192505b60025483111515610abd5760006001600085815260200190815260200160002060020160009054906101000a900473ffffffffffffffffffffffffffffffffffffffff1673ffffffffffffffffffffffffffffffffffffffff161415610ab05760016000848152602001908152602001600020600001548585815181101515610a9957fe5b906020019060200201818152505083806001019450505b8280600101935050610a14565b83604051805910610acb5750595b90808252806020026020018201604052509150600090505b83811015610b2c578481815181101515610af957fe5b906020019060200201518282815181101515610b1157fe5b90602001906020020181815250508080600101915050610ae3565b819550505050505090565b6002600081548092919060010191905055506101006040519081016040528060025481526020013373ffffffffffffffffffffffffffffffffffffffff168152602001600073ffffffffffffffffffffffffffffffffffffffff168152602001868152602001858152602001848152602001838152602001828152506001600060025481526020019081526020016000206000820151816000015560208201518160010160006101000a81548173ffffffffffffffffffffffffffffffffffffffff021916908373ffffffffffffffffffffffffffffffffffffffff16021790555060408201518160020160006101000a81548173ffffffffffffffffffffffffffffffffffffffff021916908373ffffffffffffffffffffffffffffffffffffffff1602179055506060820151816003019080519060200190610c7c929190610f22565b506080820151816004019080519060200190610c99929190610f22565b5060a0820151816005015560c0820151816006019080519060200190610cc0929190610f22565b5060e0820151816007019080519060200190610cdd929190610f22565b509050503373ffffffffffffffffffffffffffffffffffffffff166002547f02cc9b8de5c4566e010eb8c45cc09768e8057578d8f2789e960609996f263bbd8786868660405180806020018581526020018060200180602001848103845288818151815260200191508051906020019080838360005b83811015610d6e578082015181840152602081019050610d53565b50505050905090810190601f168015610d9b5780820380516001836020036101000a031916815260200191505b50848103835286818151815260200191508051906020019080838360005b83811015610dd4578082015181840152602081019050610db9565b50505050905090810190601f168015610e015780820380516001836020036101000a031916815260200191505b50848103825285818151815260200191508051906020019080838360005b83811015610e3a578082015181840152602081019050610e1f565b50505050905090810190601f168015610e675780820380516001836020036101000a031916815260200191505b5097505050505050505060405180910390a35050505050565b6000600254905090565b60016020528060005260406000206000915090508060000154908060010160009054906101000a900473ffffffffffffffffffffffffffffffffffffffff16908060020160009054906101000a900473ffffffffffffffffffffffffffffffffffffffff169080600301908060040190806005015490806006019080600701905088565b602060405190810160405280600081525090565b828054600181600116156101000203166002900490600052602060002090601f016020900481019282601f10610f6357805160ff1916838001178555610f91565b82800160010185558215610f91579182015b82811115610f90578251825591602001919060010190610f75565b5b509050610f9e9190610fa2565b5090565b610fc491905b80821115610fc0576000816000905550600101610fa8565b5090565b905600a165627a7a72305820feefc9fc49076f69bd2f15c65157677ead1bfb0820ae57cca0c2f44b39850b4b0029",
  "source": "pragma solidity ^0.4.18;\n\nimport \"./Ownable.sol\";\n\ncontract ChainList is Ownable {\n  // custom types\n  struct Article {\n    uint id;\n    address seller;\n    address buyer;\n    string name;\n    string description;\n    uint256 price;\n    string category;\n    string url;\n  }\n\n  // state variables\n  mapping (uint => Article) public articles;\n  uint articleCounter;\n\n  // events\n  event LogSellArticle(\n    uint indexed _id,\n    address indexed _seller,\n    string _name,\n    uint256 _price,\n    string _category,\n    string _url\n  );\n  event LogBuyArticle(\n    uint indexed _id,\n    address indexed _seller,\n    address indexed _buyer,\n    string _name,\n    uint256 _price,\n    string _category,\n    string _url\n  );\n\n  // deactivate the contract\n  function kill() public onlyOwner {\n    selfdestruct(owner);\n  }\n\n  // sell an article\n  function sellArticle(string _name, string _description, uint256 _price, string _category, string _url) public {\n    // a new article\n    articleCounter++;\n\n    // store this article\n    articles[articleCounter] = Article(\n      articleCounter,\n      msg.sender,\n      0x0,\n      _name,\n      _description,\n      _price,\n      _category,\n      _url\n    );\n\n    LogSellArticle(articleCounter, msg.sender, _name, _price, _category, _url);\n  }\n\n  // fetch the number of articles in the contract\n  function getNumberOfArticles() public view returns (uint) {\n    return articleCounter;\n  }\n\n  // fetch and return all article IDs for articles still for sale\n  function getArticlesForSale() public view returns (uint[]) {\n    // prepare output array\n    uint[] memory articleIds = new uint[](articleCounter);\n\n    uint numberOfArticlesForSale = 0;\n    // iterate over articles\n    for(uint i = 1; i <= articleCounter;  i++) {\n      // keep the ID if the article is still for sale\n      if(articles[i].buyer == 0x0) {\n        articleIds[numberOfArticlesForSale] = articles[i].id;\n        numberOfArticlesForSale++;\n      }\n    }\n\n    // copy the articleIds array into a smaller forSale array\n    uint[] memory forSale = new uint[](numberOfArticlesForSale);\n    for(uint j = 0; j < numberOfArticlesForSale; j++) {\n      forSale[j] = articleIds[j];\n    }\n    return forSale;\n  }\n\n  // buy an article\n  function buyArticle(uint _id) payable public {\n    // we check whether there is an article for sale\n    require(articleCounter > 0);\n\n    // we check that the article exists\n    require(_id > 0 && _id <= articleCounter);\n\n    // we retrieve the article\n    Article storage article = articles[_id];\n\n    // we check that the article has not been sold yet\n    require(article.buyer == 0X0);\n\n    // we don't allow the seller to buy his own article\n    require(msg.sender != article.seller);\n\n    // we check that the value sent corresponds to the price of the article\n    require(msg.value == article.price);\n\n    // keep buyer's information\n    article.buyer = msg.sender;\n\n    // the buyer can pay the seller\n    article.seller.transfer(msg.value);\n\n    // trigger the event\n    LogBuyArticle(_id, article.seller, article.buyer, article.name, article.price, article.category, article.url);\n  }\n}\n",
  "sourcePath": "/Users/m0s01nk/ChainSkills/Training/git/blockchain-marketplace/contracts/ChainList.sol",
  "compiler": {
    "name": "solc",
    "version": "0.4.18+commit.9cf6e910.Emscripten.clang"
  },
  "schemaVersion": "1.0.1",
  "updatedAt": "2019-05-27T05:38:51.744Z"
}